{"abi":[{"type":"constructor","inputs":[{"name":"_reactor","type":"address","internalType":"contract IReactor"},{"name":"_allowed","type":"address","internalType":"contract IAllowed"}],"stateMutability":"nonpayable"},{"type":"receive","stateMutability":"payable"},{"type":"function","name":"INVALID_ADDRESS","inputs":[],"outputs":[{"name":"","type":"address","internalType":"address"}],"stateMutability":"view"},{"type":"function","name":"VERSION","inputs":[],"outputs":[{"name":"","type":"uint8","internalType":"uint8"}],"stateMutability":"view"},{"type":"function","name":"allowed","inputs":[],"outputs":[{"name":"","type":"address","internalType":"contract IAllowed"}],"stateMutability":"view"},{"type":"function","name":"execute","inputs":[{"name":"order","type":"tuple","internalType":"struct SignedOrder","components":[{"name":"order","type":"bytes","internalType":"bytes"},{"name":"sig","type":"bytes","internalType":"bytes"}]},{"name":"calls","type":"tuple[]","internalType":"struct IMulticall3.Call[]","components":[{"name":"target","type":"address","internalType":"address"},{"name":"callData","type":"bytes","internalType":"bytes"}]},{"name":"outAmountSwapper","type":"uint256","internalType":"uint256"}],"outputs":[],"stateMutability":"nonpayable"},{"type":"function","name":"reactor","inputs":[],"outputs":[{"name":"","type":"address","internalType":"contract IReactor"}],"stateMutability":"view"},{"type":"function","name":"reactorCallback","inputs":[{"name":"orders","type":"tuple[]","internalType":"struct ResolvedOrder[]","components":[{"name":"info","type":"tuple","internalType":"struct OrderInfo","components":[{"name":"reactor","type":"address","internalType":"contract IReactor"},{"name":"swapper","type":"address","internalType":"address"},{"name":"nonce","type":"uint256","internalType":"uint256"},{"name":"deadline","type":"uint256","internalType":"uint256"},{"name":"additionalValidationContract","type":"address","internalType":"contract IValidationCallback"},{"name":"additionalValidationData","type":"bytes","internalType":"bytes"}]},{"name":"input","type":"tuple","internalType":"struct InputToken","components":[{"name":"token","type":"address","internalType":"contract ERC20"},{"name":"amount","type":"uint256","internalType":"uint256"},{"name":"maxAmount","type":"uint256","internalType":"uint256"}]},{"name":"outputs","type":"tuple[]","internalType":"struct OutputToken[]","components":[{"name":"token","type":"address","internalType":"address"},{"name":"amount","type":"uint256","internalType":"uint256"},{"name":"recipient","type":"address","internalType":"address"}]},{"name":"sig","type":"bytes","internalType":"bytes"},{"name":"hash","type":"bytes32","internalType":"bytes32"}]},{"name":"callbackData","type":"bytes","internalType":"bytes"}],"outputs":[],"stateMutability":"nonpayable"},{"type":"function","name":"validate","inputs":[{"name":"filler","type":"address","internalType":"address"},{"name":"","type":"tuple","internalType":"struct ResolvedOrder","components":[{"name":"info","type":"tuple","internalType":"struct OrderInfo","components":[{"name":"reactor","type":"address","internalType":"contract IReactor"},{"name":"swapper","type":"address","internalType":"address"},{"name":"nonce","type":"uint256","internalType":"uint256"},{"name":"deadline","type":"uint256","internalType":"uint256"},{"name":"additionalValidationContract","type":"address","internalType":"contract IValidationCallback"},{"name":"additionalValidationData","type":"bytes","internalType":"bytes"}]},{"name":"input","type":"tuple","internalType":"struct InputToken","components":[{"name":"token","type":"address","internalType":"contract ERC20"},{"name":"amount","type":"uint256","internalType":"uint256"},{"name":"maxAmount","type":"uint256","internalType":"uint256"}]},{"name":"outputs","type":"tuple[]","internalType":"struct OutputToken[]","components":[{"name":"token","type":"address","internalType":"address"},{"name":"amount","type":"uint256","internalType":"uint256"},{"name":"recipient","type":"address","internalType":"address"}]},{"name":"sig","type":"bytes","internalType":"bytes"},{"name":"hash","type":"bytes32","internalType":"bytes32"}]}],"outputs":[],"stateMutability":"view"},{"type":"event","name":"ExtraOut","inputs":[{"name":"recipient","type":"address","indexed":true,"internalType":"address"},{"name":"token","type":"address","indexed":false,"internalType":"address"},{"name":"amount","type":"uint256","indexed":false,"internalType":"uint256"}],"anonymous":false},{"type":"event","name":"Resolved","inputs":[{"name":"orderHash","type":"bytes32","indexed":true,"internalType":"bytes32"},{"name":"swapper","type":"address","indexed":true,"internalType":"address"},{"name":"ref","type":"address","indexed":true,"internalType":"address"},{"name":"inToken","type":"address","indexed":false,"internalType":"address"},{"name":"outToken","type":"address","indexed":false,"internalType":"address"},{"name":"inAmount","type":"uint256","indexed":false,"internalType":"uint256"},{"name":"outAmount","type":"uint256","indexed":false,"internalType":"uint256"}],"anonymous":false},{"type":"event","name":"Surplus","inputs":[{"name":"ref","type":"address","indexed":true,"internalType":"address"},{"name":"swapper","type":"address","indexed":false,"internalType":"address"},{"name":"token","type":"address","indexed":false,"internalType":"address"},{"name":"amount","type":"uint256","indexed":false,"internalType":"uint256"},{"name":"refshare","type":"uint256","indexed":false,"internalType":"uint256"}],"anonymous":false},{"type":"error","name":"InvalidOrder","inputs":[]},{"type":"error","name":"InvalidSender","inputs":[{"name":"sender","type":"address","internalType":"address"}]}],"bytecode":{"object":"0x60c06040523480156200001157600080fd5b506040516200224b3803806200224b833981016040819052620000349162000065565b6001600160a01b039182166080521660a052620000a4565b6001600160a01b03811681146200006257600080fd5b50565b600080604083850312156200007957600080fd5b825162000086816200004c565b602084015190925062000099816200004c565b809150509250929050565b60805160a05161215f620000ec60003960008181609201526101de0152600081816101670152818161029d0152818161042101528181610b1d0152610b5e015261215f6000f3fe6080604052600436106100745760003560e01c80635963709b1161004e5780635963709b146101205780636e84ba2b14610135578063ab57265014610155578063ffa1ad741461018957600080fd5b806319e1fca414610080578063489f9902146100de578063585da6281461010057600080fd5b3661007b57005b600080fd5b34801561008c57600080fd5b506100b47f000000000000000000000000000000000000000000000000000000000000000081565b60405173ffffffffffffffffffffffffffffffffffffffff90911681526020015b60405180910390f35b3480156100ea57600080fd5b506100fe6100f9366004611252565b6101b0565b005b34801561010c57600080fd5b506100fe61011b3660046116c7565b610409565b34801561012c57600080fd5b506100b4600181565b34801561014157600080fd5b506100fe610150366004611854565b610598565b34801561016157600080fd5b506100b47f000000000000000000000000000000000000000000000000000000000000000081565b34801561019557600080fd5b5061019e600681565b60405160ff90911681526020016100d5565b6040517fd63a8e110000000000000000000000000000000000000000000000000000000081523360048201527f000000000000000000000000000000000000000000000000000000000000000073ffffffffffffffffffffffffffffffffffffffff169063d63a8e1190602401602060405180830381865afa15801561023a573d6000803e3d6000fd5b505050506040513d601f19601f8201168201806040525081019061025e91906118ab565b61029b576040517f4c14f64c0000000000000000000000000000000000000000000000000000000081523360048201526024015b60405180910390fd5b7f000000000000000000000000000000000000000000000000000000000000000073ffffffffffffffffffffffffffffffffffffffff16630d335884858585856040516020016102ed93929190611988565b6040516020818303038152906040526040518363ffffffff1660e01b8152600401610319929190611ae8565b600060405180830381600087803b15801561033357600080fd5b505af1158015610347573d6000803e3d6000fd5b506000925061035a915086905080611b70565b8101906103679190611c85565b9050600080826000015160a001518060200190518101906103889190611d59565b915091506103a8828460000151602001518560a001516000015184610603565b60005b8360c00151518110156103ff576103ed838560000151602001518660c0015184815181106103db576103db611d8e565b60200260200101516000015185610603565b806103f781611dec565b9150506103ab565b5050505050505050565b3373ffffffffffffffffffffffffffffffffffffffff7f0000000000000000000000000000000000000000000000000000000000000000161461047a576040517f4c14f64c000000000000000000000000000000000000000000000000000000008152336004820152602401610292565b60008260008151811061048f5761048f611d8e565b60200260200101519050600080838060200190518101906104b09190611e24565b915091506104bd826106eb565b6000806104c98561079e565b91509150808311156104f0578451602001516104f09083906104eb8487611f7d565b6109b8565b6000856000015160a0015180602001905181019061050e9190611f90565b86516020908101516080808a0151838b01518051908501516040805173ffffffffffffffffffffffffffffffffffffffff93841681528b8416978101979097528601526060850188905294955085851694909216927f848cc5ed1484f306a3369f20f8d5c1c291e44ddd16dd5f14c106effc790dc11f910160405180910390a45050505050505050565b73ffffffffffffffffffffffffffffffffffffffff821630146105ff576040517f4c14f64c00000000000000000000000000000000000000000000000000000000815273ffffffffffffffffffffffffffffffffffffffff83166004820152602401610292565b5050565b600061060f8330610a03565b90508060000361061f57506106e5565b600073ffffffffffffffffffffffffffffffffffffffff861661064357600061065c565b606461065260ff851684611fad565b61065c9190611fc4565b9050801561066f5761066f8487836109b8565b61067e84866104eb8486611f7d565b6040805173ffffffffffffffffffffffffffffffffffffffff8781168252868116602083015291810184905260608101839052908716907fdcbeb523eb476416bee3486d82b37ae932021e9e9822c32c1ae986f97d2685df9060800160405180910390a250505b50505050565b6105ff73ca11bde05977b3631167028862be2a173976ca1163252dba4260e01b8360405160240161071c9190611fff565b604080517fffffffffffffffffffffffffffffffffffffffffffffffffffffffffffffffe08184030181529190526020810180517bffffffffffffffffffffffffffffffffffffffffffffffffffffffff167fffffffff0000000000000000000000000000000000000000000000000000000090931692909217909152610ad8565b60016000805b8360400151518110156109b2576000846040015182815181106107c9576107c9611d8e565b6020026020010151602001519050600081111561099f576000856040015183815181106107f8576107f8611d8e565b60200260200101516000015190506108108183610afd565b85600001516020015173ffffffffffffffffffffffffffffffffffffffff168660400151848151811061084557610845611d8e565b60200260200101516040015173ffffffffffffffffffffffffffffffffffffffff160361090a5773ffffffffffffffffffffffffffffffffffffffff85166001148015906108bf57508073ffffffffffffffffffffffffffffffffffffffff168573ffffffffffffffffffffffffffffffffffffffff1614155b156108f6576040517faf61069300000000000000000000000000000000000000000000000000000000815260040160405180910390fd5b93508361090382856120a7565b935061099d565b8560400151838151811061092057610920611d8e565b60200260200101516040015173ffffffffffffffffffffffffffffffffffffffff167fccfa7da1b610c73a66316e176cd35aadc378051b68b1c29ded1b2d36418728ed828460405161099492919073ffffffffffffffffffffffffffffffffffffffff929092168252602082015260400190565b60405180910390a25b505b50806109aa81611dec565b9150506107a4565b50915091565b73ffffffffffffffffffffffffffffffffffffffff83166109e2576109dd8282610b83565b505050565b6109dd73ffffffffffffffffffffffffffffffffffffffff84168383610cdd565b600073ffffffffffffffffffffffffffffffffffffffff831615610ab6576040517f70a0823100000000000000000000000000000000000000000000000000000000815273ffffffffffffffffffffffffffffffffffffffff83811660048301528416906370a0823190602401602060405180830381865afa158015610a8d573d6000803e3d6000fd5b505050506040513d601f19601f82011682018060405250810190610ab191906120ba565b610acf565b8173ffffffffffffffffffffffffffffffffffffffff16315b90505b92915050565b6060610acf838360405180606001604052806027815260200161210360279139610db1565b73ffffffffffffffffffffffffffffffffffffffff8216610b42576105ff7f000000000000000000000000000000000000000000000000000000000000000082610b83565b6105ff73ffffffffffffffffffffffffffffffffffffffff83167f000000000000000000000000000000000000000000000000000000000000000083610e36565b80471015610bed576040517f08c379a000000000000000000000000000000000000000000000000000000000815260206004820152601d60248201527f416464726573733a20696e73756666696369656e742062616c616e63650000006044820152606401610292565b60008273ffffffffffffffffffffffffffffffffffffffff168260405160006040518083038185875af1925050503d8060008114610c47576040519150601f19603f3d011682016040523d82523d6000602084013e610c4c565b606091505b50509050806109dd576040517f08c379a000000000000000000000000000000000000000000000000000000000815260206004820152603a60248201527f416464726573733a20756e61626c6520746f2073656e642076616c75652c207260448201527f6563697069656e74206d617920686176652072657665727465640000000000006064820152608401610292565b60405173ffffffffffffffffffffffffffffffffffffffff83166024820152604481018290526109dd9084907fa9059cbb00000000000000000000000000000000000000000000000000000000906064015b604080517fffffffffffffffffffffffffffffffffffffffffffffffffffffffffffffffe08184030181529190526020810180517bffffffffffffffffffffffffffffffffffffffffffffffffffffffff167fffffffff0000000000000000000000000000000000000000000000000000000090931692909217909152610f2f565b60606000808573ffffffffffffffffffffffffffffffffffffffff1685604051610ddb91906120d3565b600060405180830381855af49150503d8060008114610e16576040519150601f19603f3d011682016040523d82523d6000602084013e610e1b565b606091505b5091509150610e2c8683838761103e565b9695505050505050565b6040517fdd62ed3e00000000000000000000000000000000000000000000000000000000815230600482015273ffffffffffffffffffffffffffffffffffffffff83811660248301526000919085169063dd62ed3e90604401602060405180830381865afa158015610eac573d6000803e3d6000fd5b505050506040513d601f19601f82011682018060405250810190610ed091906120ba565b90506106e5847f095ea7b30000000000000000000000000000000000000000000000000000000085610f0286866120a7565b60405173ffffffffffffffffffffffffffffffffffffffff90921660248301526044820152606401610d2f565b6000610f91826040518060400160405280602081526020017f5361666545524332303a206c6f772d6c6576656c2063616c6c206661696c65648152508573ffffffffffffffffffffffffffffffffffffffff166110e69092919063ffffffff16565b9050805160001480610fb2575080806020019051810190610fb291906118ab565b6109dd576040517f08c379a000000000000000000000000000000000000000000000000000000000815260206004820152602a60248201527f5361666545524332303a204552433230206f7065726174696f6e20646964206e60448201527f6f742073756363656564000000000000000000000000000000000000000000006064820152608401610292565b606083156110d45782516000036110cd5773ffffffffffffffffffffffffffffffffffffffff85163b6110cd576040517f08c379a000000000000000000000000000000000000000000000000000000000815260206004820152601d60248201527f416464726573733a2063616c6c20746f206e6f6e2d636f6e74726163740000006044820152606401610292565b50816110de565b6110de83836110f5565b949350505050565b60606110de8484600085611139565b8151156111055781518083602001fd5b806040517f08c379a000000000000000000000000000000000000000000000000000000000815260040161029291906120ef565b6060824710156111cb576040517f08c379a000000000000000000000000000000000000000000000000000000000815260206004820152602660248201527f416464726573733a20696e73756666696369656e742062616c616e636520666f60448201527f722063616c6c00000000000000000000000000000000000000000000000000006064820152608401610292565b6000808673ffffffffffffffffffffffffffffffffffffffff1685876040516111f491906120d3565b60006040518083038185875af1925050503d8060008114611231576040519150601f19603f3d011682016040523d82523d6000602084013e611236565b606091505b50915091506112478783838761103e565b979650505050505050565b6000806000806060858703121561126857600080fd5b843567ffffffffffffffff8082111561128057600080fd5b908601906040828903121561129457600080fd5b909450602086013590808211156112aa57600080fd5b818701915087601f8301126112be57600080fd5b8135818111156112cd57600080fd5b8860208260051b85010111156112e257600080fd5b95986020929092019750949560400135945092505050565b7f4e487b7100000000000000000000000000000000000000000000000000000000600052604160045260246000fd5b6040516060810167ffffffffffffffff8111828210171561134c5761134c6112fa565b60405290565b60405160a0810167ffffffffffffffff8111828210171561134c5761134c6112fa565b6040516080810167ffffffffffffffff8111828210171561134c5761134c6112fa565b60405160e0810167ffffffffffffffff8111828210171561134c5761134c6112fa565b6040805190810167ffffffffffffffff8111828210171561134c5761134c6112fa565b604051601f82017fffffffffffffffffffffffffffffffffffffffffffffffffffffffffffffffe016810167ffffffffffffffff81118282101715611425576114256112fa565b604052919050565b600067ffffffffffffffff821115611447576114476112fa565b5060051b60200190565b73ffffffffffffffffffffffffffffffffffffffff8116811461147357600080fd5b50565b803561148181611451565b919050565b600067ffffffffffffffff8211156114a0576114a06112fa565b50601f017fffffffffffffffffffffffffffffffffffffffffffffffffffffffffffffffe01660200190565b600082601f8301126114dd57600080fd5b81356114f06114eb82611486565b6113de565b81815284602083860101111561150557600080fd5b816020850160208301376000918101602001919091529392505050565b600060c0828403121561153457600080fd5b60405160c0810167ffffffffffffffff8282108183111715611558576115586112fa565b816040528293508435915061156c82611451565b90825260208401359061157e82611451565b8160208401526040850135604084015260608501356060840152608085013591506115a882611451565b81608084015260a08501359150808211156115c257600080fd5b506115cf858286016114cc565b60a0830152505092915050565b6000606082840312156115ee57600080fd5b6115f6611329565b9050813561160381611451565b80825250602082013560208201526040820135604082015292915050565b600082601f83011261163257600080fd5b813560206116426114eb8361142d565b8281526060928302850182019282820191908785111561166157600080fd5b8387015b858110156116ba5781818a03121561167d5760008081fd5b611685611329565b813561169081611451565b815281860135868201526040808301356116a981611451565b908201528452928401928101611665565b5090979650505050505050565b600080604083850312156116da57600080fd5b823567ffffffffffffffff808211156116f257600080fd5b818501915085601f83011261170657600080fd5b813560206117166114eb8361142d565b82815260059290921b8401810191818101908984111561173557600080fd5b8286015b84811015611826578035868111156117515760008081fd5b870160e0818d037fffffffffffffffffffffffffffffffffffffffffffffffffffffffffffffffe0018113156117875760008081fd5b61178f611352565b86830135898111156117a15760008081fd5b6117af8f8983870101611522565b8252506117bf8e604085016115dc565b8782015260a0830135898111156117d65760008081fd5b6117e48f8983870101611621565b60408301525060c0830135898111156117fd5760008081fd5b61180b8f89838701016114cc565b60608301525091013560808201528352918301918301611739565b509650508601359250508082111561183d57600080fd5b5061184a858286016114cc565b9150509250929050565b6000806040838503121561186757600080fd5b823561187281611451565b9150602083013567ffffffffffffffff81111561188e57600080fd5b830160e081860312156118a057600080fd5b809150509250929050565b6000602082840312156118bd57600080fd5b815180151581146118cd57600080fd5b9392505050565b60008083357fffffffffffffffffffffffffffffffffffffffffffffffffffffffffffffffe184360301811261190957600080fd5b830160208101925035905067ffffffffffffffff81111561192957600080fd5b80360382131561193857600080fd5b9250929050565b8183528181602085013750600060208284010152600060207fffffffffffffffffffffffffffffffffffffffffffffffffffffffffffffffe0601f840116840101905092915050565b60408082528181018490526000906060600586901b840181019084018784805b89811015611a64577fffffffffffffffffffffffffffffffffffffffffffffffffffffffffffffffa088860301845282357fffffffffffffffffffffffffffffffffffffffffffffffffffffffffffffffc18c3603018112611a08578283fd5b8b018035611a1581611451565b73ffffffffffffffffffffffffffffffffffffffff1686526020611a3b828201836118d4565b92508882890152611a4f898901848361193f565b975050948501949390930192506001016119a8565b5050505060209390930193909352509392505050565b60005b83811015611a95578181015183820152602001611a7d565b50506000910152565b60008151808452611ab6816020860160208601611a7a565b601f017fffffffffffffffffffffffffffffffffffffffffffffffffffffffffffffffe0169290920160200192915050565b604081526000611af884856118d4565b604080850152611b0c60808501828461193f565b915050611b1c60208601866118d4565b7fffffffffffffffffffffffffffffffffffffffffffffffffffffffffffffffc0858403016060860152611b5183828461193f565b925050508281036020840152611b678185611a9e565b95945050505050565b60008083357fffffffffffffffffffffffffffffffffffffffffffffffffffffffffffffffe1843603018112611ba557600080fd5b83018035915067ffffffffffffffff821115611bc057600080fd5b60200191503681900382131561193857600080fd5b600082601f830112611be657600080fd5b81356020611bf66114eb8361142d565b82815260079290921b84018101918181019086841115611c1557600080fd5b8286015b84811015611c7a5760808189031215611c325760008081fd5b611c3a611375565b8135611c4581611451565b8152818501358582015260408083013590820152606080830135611c6881611451565b90820152835291830191608001611c19565b509695505050505050565b600060208284031215611c9757600080fd5b813567ffffffffffffffff80821115611caf57600080fd5b908301906101208286031215611cc457600080fd5b611ccc611398565b823582811115611cdb57600080fd5b611ce787828601611522565b8252506020830135602082015260408301356040820152611d0a60608401611476565b606082015260808301356080820152611d268660a085016115dc565b60a082015261010083013582811115611d3e57600080fd5b611d4a87828601611bd5565b60c08301525095945050505050565b60008060408385031215611d6c57600080fd5b8251611d7781611451565b602084015190925060ff811681146118a057600080fd5b7f4e487b7100000000000000000000000000000000000000000000000000000000600052603260045260246000fd5b7f4e487b7100000000000000000000000000000000000000000000000000000000600052601160045260246000fd5b60007fffffffffffffffffffffffffffffffffffffffffffffffffffffffffffffffff8203611e1d57611e1d611dbd565b5060010190565b6000806040808486031215611e3857600080fd5b835167ffffffffffffffff80821115611e5057600080fd5b818601915086601f830112611e6457600080fd5b81516020611e746114eb8361142d565b82815260059290921b8401810191818101908a841115611e9357600080fd5b8286015b84811015611f6957805186811115611eaf5760008081fd5b8701808d037fffffffffffffffffffffffffffffffffffffffffffffffffffffffffffffffe001891315611ee35760008081fd5b611eeb6113bb565b85820151611ef881611451565b8152818a015188811115611f0c5760008081fd5b8083019250508d603f830112611f225760008081fd5b85820151611f326114eb82611486565b8181528f8c838601011115611f475760008081fd5b611f56828983018e8701611a7a565b8288015250845250918301918301611e97565b509890910151979997985050505050505050565b81810381811115610ad257610ad2611dbd565b600060208284031215611fa257600080fd5b81516118cd81611451565b8082028115828204841417610ad257610ad2611dbd565b600082611ffa577f4e487b7100000000000000000000000000000000000000000000000000000000600052601260045260246000fd5b500490565b60006020808301818452808551808352604092508286019150828160051b87010184880160005b83811015612099578883037fffffffffffffffffffffffffffffffffffffffffffffffffffffffffffffffc00185528151805173ffffffffffffffffffffffffffffffffffffffff16845287015187840187905261208687850182611a9e565b9588019593505090860190600101612026565b509098975050505050505050565b80820180821115610ad257610ad2611dbd565b6000602082840312156120cc57600080fd5b5051919050565b600082516120e5818460208701611a7a565b9190910192915050565b602081526000610acf6020830184611a9e56fe416464726573733a206c6f772d6c6576656c2064656c65676174652063616c6c206661696c6564a2646970667358221220d9a31db88448037f0b18dadc98cd5da6bc36d33cf48b45a318146b48011c56d864736f6c63430008130033","linkReferences":{}},"methodIdentifiers":{"INVALID_ADDRESS()":"5963709b","VERSION()":"ffa1ad74","allowed()":"19e1fca4","execute((bytes,bytes),(address,bytes)[],uint256)":"489f9902","reactor()":"ab572650","reactorCallback(((address,address,uint256,uint256,address,bytes),(address,uint256,uint256),(address,uint256,address)[],bytes,bytes32)[],bytes)":"585da628","validate(address,((address,address,uint256,uint256,address,bytes),(address,uint256,uint256),(address,uint256,address)[],bytes,bytes32))":"6e84ba2b"},"id":74}