{"abi":[{"type":"constructor","inputs":[{"name":"_reactor","type":"address","internalType":"contract IReactor"},{"name":"_allowed","type":"address","internalType":"contract IAllowed"}],"stateMutability":"nonpayable"},{"type":"receive","stateMutability":"payable"},{"type":"function","name":"INVALID_ADDRESS","inputs":[],"outputs":[{"name":"","type":"address","internalType":"address"}],"stateMutability":"view"},{"type":"function","name":"VERSION","inputs":[],"outputs":[{"name":"","type":"uint8","internalType":"uint8"}],"stateMutability":"view"},{"type":"function","name":"allowed","inputs":[],"outputs":[{"name":"","type":"address","internalType":"contract IAllowed"}],"stateMutability":"view"},{"type":"function","name":"execute","inputs":[{"name":"order","type":"tuple","internalType":"struct SignedOrder","components":[{"name":"order","type":"bytes","internalType":"bytes"},{"name":"sig","type":"bytes","internalType":"bytes"}]},{"name":"calls","type":"tuple[]","internalType":"struct IMulticall3.Call[]","components":[{"name":"target","type":"address","internalType":"address"},{"name":"callData","type":"bytes","internalType":"bytes"}]},{"name":"outAmountSwapper","type":"uint256","internalType":"uint256"}],"outputs":[],"stateMutability":"nonpayable"},{"type":"function","name":"reactor","inputs":[],"outputs":[{"name":"","type":"address","internalType":"contract IReactor"}],"stateMutability":"view"},{"type":"function","name":"reactorCallback","inputs":[{"name":"orders","type":"tuple[]","internalType":"struct ResolvedOrder[]","components":[{"name":"info","type":"tuple","internalType":"struct OrderInfo","components":[{"name":"reactor","type":"address","internalType":"contract IReactor"},{"name":"swapper","type":"address","internalType":"address"},{"name":"nonce","type":"uint256","internalType":"uint256"},{"name":"deadline","type":"uint256","internalType":"uint256"},{"name":"additionalValidationContract","type":"address","internalType":"contract IValidationCallback"},{"name":"additionalValidationData","type":"bytes","internalType":"bytes"}]},{"name":"input","type":"tuple","internalType":"struct InputToken","components":[{"name":"token","type":"address","internalType":"contract ERC20"},{"name":"amount","type":"uint256","internalType":"uint256"},{"name":"maxAmount","type":"uint256","internalType":"uint256"}]},{"name":"outputs","type":"tuple[]","internalType":"struct OutputToken[]","components":[{"name":"token","type":"address","internalType":"address"},{"name":"amount","type":"uint256","internalType":"uint256"},{"name":"recipient","type":"address","internalType":"address"}]},{"name":"sig","type":"bytes","internalType":"bytes"},{"name":"hash","type":"bytes32","internalType":"bytes32"}]},{"name":"callbackData","type":"bytes","internalType":"bytes"}],"outputs":[],"stateMutability":"nonpayable"},{"type":"function","name":"validate","inputs":[{"name":"filler","type":"address","internalType":"address"},{"name":"","type":"tuple","internalType":"struct ResolvedOrder","components":[{"name":"info","type":"tuple","internalType":"struct OrderInfo","components":[{"name":"reactor","type":"address","internalType":"contract IReactor"},{"name":"swapper","type":"address","internalType":"address"},{"name":"nonce","type":"uint256","internalType":"uint256"},{"name":"deadline","type":"uint256","internalType":"uint256"},{"name":"additionalValidationContract","type":"address","internalType":"contract IValidationCallback"},{"name":"additionalValidationData","type":"bytes","internalType":"bytes"}]},{"name":"input","type":"tuple","internalType":"struct InputToken","components":[{"name":"token","type":"address","internalType":"contract ERC20"},{"name":"amount","type":"uint256","internalType":"uint256"},{"name":"maxAmount","type":"uint256","internalType":"uint256"}]},{"name":"outputs","type":"tuple[]","internalType":"struct OutputToken[]","components":[{"name":"token","type":"address","internalType":"address"},{"name":"amount","type":"uint256","internalType":"uint256"},{"name":"recipient","type":"address","internalType":"address"}]},{"name":"sig","type":"bytes","internalType":"bytes"},{"name":"hash","type":"bytes32","internalType":"bytes32"}]}],"outputs":[],"stateMutability":"view"},{"type":"error","name":"InvalidOrder","inputs":[]},{"type":"error","name":"InvalidSender","inputs":[{"name":"sender","type":"address","internalType":"address"}]}],"bytecode":{"object":"0x60c06040523480156200001157600080fd5b50604051620021d7380380620021d7833981016040819052620000349162000065565b6001600160a01b039182166080521660a052620000a4565b6001600160a01b03811681146200006257600080fd5b50565b600080604083850312156200007957600080fd5b825162000086816200004c565b602084015190925062000099816200004c565b809150509250929050565b60805160a0516120eb620000ec60003960008181609201526101de0152600081816101670152818161029d0152818161042101528181610aa90152610aea01526120eb6000f3fe6080604052600436106100745760003560e01c80635963709b1161004e5780635963709b146101205780636e84ba2b14610135578063ab57265014610155578063ffa1ad741461018957600080fd5b806319e1fca414610080578063489f9902146100de578063585da6281461010057600080fd5b3661007b57005b600080fd5b34801561008c57600080fd5b506100b47f000000000000000000000000000000000000000000000000000000000000000081565b60405173ffffffffffffffffffffffffffffffffffffffff90911681526020015b60405180910390f35b3480156100ea57600080fd5b506100fe6100f93660046111de565b6101b0565b005b34801561010c57600080fd5b506100fe61011b366004611653565b610409565b34801561012c57600080fd5b506100b4600181565b34801561014157600080fd5b506100fe6101503660046117e0565b610598565b34801561016157600080fd5b506100b47f000000000000000000000000000000000000000000000000000000000000000081565b34801561019557600080fd5b5061019e600581565b60405160ff90911681526020016100d5565b6040517fd63a8e110000000000000000000000000000000000000000000000000000000081523360048201527f000000000000000000000000000000000000000000000000000000000000000073ffffffffffffffffffffffffffffffffffffffff169063d63a8e1190602401602060405180830381865afa15801561023a573d6000803e3d6000fd5b505050506040513d601f19601f8201168201806040525081019061025e9190611837565b61029b576040517f4c14f64c0000000000000000000000000000000000000000000000000000000081523360048201526024015b60405180910390fd5b7f000000000000000000000000000000000000000000000000000000000000000073ffffffffffffffffffffffffffffffffffffffff16630d335884858585856040516020016102ed93929190611914565b6040516020818303038152906040526040518363ffffffff1660e01b8152600401610319929190611a74565b600060405180830381600087803b15801561033357600080fd5b505af1158015610347573d6000803e3d6000fd5b506000925061035a915086905080611afc565b8101906103679190611c11565b9050600080826000015160a001518060200190518101906103889190611ce5565b915091506103a8836000015160200151838560a001516000015184610603565b60005b8360c00151518110156103ff576103ed846000015160200151848660c0015184815181106103db576103db611d1a565b60200260200101516000015185610603565b806103f781611d78565b9150506103ab565b5050505050505050565b3373ffffffffffffffffffffffffffffffffffffffff7f0000000000000000000000000000000000000000000000000000000000000000161461047a576040517f4c14f64c000000000000000000000000000000000000000000000000000000008152336004820152602401610292565b60008260008151811061048f5761048f611d1a565b60200260200101519050600080838060200190518101906104b09190611db0565b915091506104bd8261070e565b6000806104c9856107c1565b91509150808311156104f0578451602001516104f09083906104eb8487611f09565b610944565b6000856000015160a0015180602001905181019061050e9190611f1c565b86516020908101516080808a0151838b01518051908501516040805173ffffffffffffffffffffffffffffffffffffffff93841681528b8416978101979097528601526060850188905294955085851694909216927f848cc5ed1484f306a3369f20f8d5c1c291e44ddd16dd5f14c106effc790dc11f910160405180910390a45050505050505050565b73ffffffffffffffffffffffffffffffffffffffff821630146105ff576040517f4c14f64c00000000000000000000000000000000000000000000000000000000815273ffffffffffffffffffffffffffffffffffffffff83166004820152602401610292565b5050565b600061060f833061098f565b90508060000361061f5750610708565b600073ffffffffffffffffffffffffffffffffffffffff851661064357600061065c565b606461065260ff851684611f39565b61065c9190611f50565b9050801561066f5761066f848683610944565b61067e84876104eb8486611f09565b8373ffffffffffffffffffffffffffffffffffffffff168573ffffffffffffffffffffffffffffffffffffffff168773ffffffffffffffffffffffffffffffffffffffff167fdcbeb523eb476416bee3486d82b37ae932021e9e9822c32c1ae986f97d2685df85856040516106fd929190918252602082015260400190565b60405180910390a450505b50505050565b6105ff73ca11bde05977b3631167028862be2a173976ca1163252dba4260e01b8360405160240161073f9190611f8b565b604080517fffffffffffffffffffffffffffffffffffffffffffffffffffffffffffffffe08184030181529190526020810180517bffffffffffffffffffffffffffffffffffffffffffffffffffffffff167fffffffff0000000000000000000000000000000000000000000000000000000090931692909217909152610a64565b60016000805b83604001515181101561093e576000846040015182815181106107ec576107ec611d1a565b6020026020010151602001519050600081111561092b5760008560400151838151811061081b5761081b611d1a565b60200260200101516000015190506108338183610a89565b85600001516020015173ffffffffffffffffffffffffffffffffffffffff168660400151848151811061086857610868611d1a565b60200260200101516040015173ffffffffffffffffffffffffffffffffffffffff16036109295773ffffffffffffffffffffffffffffffffffffffff85166001148015906108e257508073ffffffffffffffffffffffffffffffffffffffff168573ffffffffffffffffffffffffffffffffffffffff1614155b15610919576040517faf61069300000000000000000000000000000000000000000000000000000000815260040160405180910390fd5b9350836109268285612033565b93505b505b508061093681611d78565b9150506107c7565b50915091565b73ffffffffffffffffffffffffffffffffffffffff831661096e576109698282610b0f565b505050565b61096973ffffffffffffffffffffffffffffffffffffffff84168383610c69565b600073ffffffffffffffffffffffffffffffffffffffff831615610a42576040517f70a0823100000000000000000000000000000000000000000000000000000000815273ffffffffffffffffffffffffffffffffffffffff83811660048301528416906370a0823190602401602060405180830381865afa158015610a19573d6000803e3d6000fd5b505050506040513d601f19601f82011682018060405250810190610a3d9190612046565b610a5b565b8173ffffffffffffffffffffffffffffffffffffffff16315b90505b92915050565b6060610a5b838360405180606001604052806027815260200161208f60279139610d3d565b73ffffffffffffffffffffffffffffffffffffffff8216610ace576105ff7f000000000000000000000000000000000000000000000000000000000000000082610b0f565b6105ff73ffffffffffffffffffffffffffffffffffffffff83167f000000000000000000000000000000000000000000000000000000000000000083610dc2565b80471015610b79576040517f08c379a000000000000000000000000000000000000000000000000000000000815260206004820152601d60248201527f416464726573733a20696e73756666696369656e742062616c616e63650000006044820152606401610292565b60008273ffffffffffffffffffffffffffffffffffffffff168260405160006040518083038185875af1925050503d8060008114610bd3576040519150601f19603f3d011682016040523d82523d6000602084013e610bd8565b606091505b5050905080610969576040517f08c379a000000000000000000000000000000000000000000000000000000000815260206004820152603a60248201527f416464726573733a20756e61626c6520746f2073656e642076616c75652c207260448201527f6563697069656e74206d617920686176652072657665727465640000000000006064820152608401610292565b60405173ffffffffffffffffffffffffffffffffffffffff83166024820152604481018290526109699084907fa9059cbb00000000000000000000000000000000000000000000000000000000906064015b604080517fffffffffffffffffffffffffffffffffffffffffffffffffffffffffffffffe08184030181529190526020810180517bffffffffffffffffffffffffffffffffffffffffffffffffffffffff167fffffffff0000000000000000000000000000000000000000000000000000000090931692909217909152610ebb565b60606000808573ffffffffffffffffffffffffffffffffffffffff1685604051610d67919061205f565b600060405180830381855af49150503d8060008114610da2576040519150601f19603f3d011682016040523d82523d6000602084013e610da7565b606091505b5091509150610db886838387610fca565b9695505050505050565b6040517fdd62ed3e00000000000000000000000000000000000000000000000000000000815230600482015273ffffffffffffffffffffffffffffffffffffffff83811660248301526000919085169063dd62ed3e90604401602060405180830381865afa158015610e38573d6000803e3d6000fd5b505050506040513d601f19601f82011682018060405250810190610e5c9190612046565b9050610708847f095ea7b30000000000000000000000000000000000000000000000000000000085610e8e8686612033565b60405173ffffffffffffffffffffffffffffffffffffffff90921660248301526044820152606401610cbb565b6000610f1d826040518060400160405280602081526020017f5361666545524332303a206c6f772d6c6576656c2063616c6c206661696c65648152508573ffffffffffffffffffffffffffffffffffffffff166110729092919063ffffffff16565b9050805160001480610f3e575080806020019051810190610f3e9190611837565b610969576040517f08c379a000000000000000000000000000000000000000000000000000000000815260206004820152602a60248201527f5361666545524332303a204552433230206f7065726174696f6e20646964206e60448201527f6f742073756363656564000000000000000000000000000000000000000000006064820152608401610292565b606083156110605782516000036110595773ffffffffffffffffffffffffffffffffffffffff85163b611059576040517f08c379a000000000000000000000000000000000000000000000000000000000815260206004820152601d60248201527f416464726573733a2063616c6c20746f206e6f6e2d636f6e74726163740000006044820152606401610292565b508161106a565b61106a8383611081565b949350505050565b606061106a84846000856110c5565b8151156110915781518083602001fd5b806040517f08c379a0000000000000000000000000000000000000000000000000000000008152600401610292919061207b565b606082471015611157576040517f08c379a000000000000000000000000000000000000000000000000000000000815260206004820152602660248201527f416464726573733a20696e73756666696369656e742062616c616e636520666f60448201527f722063616c6c00000000000000000000000000000000000000000000000000006064820152608401610292565b6000808673ffffffffffffffffffffffffffffffffffffffff168587604051611180919061205f565b60006040518083038185875af1925050503d80600081146111bd576040519150601f19603f3d011682016040523d82523d6000602084013e6111c2565b606091505b50915091506111d387838387610fca565b979650505050505050565b600080600080606085870312156111f457600080fd5b843567ffffffffffffffff8082111561120c57600080fd5b908601906040828903121561122057600080fd5b9094506020860135908082111561123657600080fd5b818701915087601f83011261124a57600080fd5b81358181111561125957600080fd5b8860208260051b850101111561126e57600080fd5b95986020929092019750949560400135945092505050565b7f4e487b7100000000000000000000000000000000000000000000000000000000600052604160045260246000fd5b6040516060810167ffffffffffffffff811182821017156112d8576112d8611286565b60405290565b60405160a0810167ffffffffffffffff811182821017156112d8576112d8611286565b6040516080810167ffffffffffffffff811182821017156112d8576112d8611286565b60405160e0810167ffffffffffffffff811182821017156112d8576112d8611286565b6040805190810167ffffffffffffffff811182821017156112d8576112d8611286565b604051601f82017fffffffffffffffffffffffffffffffffffffffffffffffffffffffffffffffe016810167ffffffffffffffff811182821017156113b1576113b1611286565b604052919050565b600067ffffffffffffffff8211156113d3576113d3611286565b5060051b60200190565b73ffffffffffffffffffffffffffffffffffffffff811681146113ff57600080fd5b50565b803561140d816113dd565b919050565b600067ffffffffffffffff82111561142c5761142c611286565b50601f017fffffffffffffffffffffffffffffffffffffffffffffffffffffffffffffffe01660200190565b600082601f83011261146957600080fd5b813561147c61147782611412565b61136a565b81815284602083860101111561149157600080fd5b816020850160208301376000918101602001919091529392505050565b600060c082840312156114c057600080fd5b60405160c0810167ffffffffffffffff82821081831117156114e4576114e4611286565b81604052829350843591506114f8826113dd565b90825260208401359061150a826113dd565b816020840152604085013560408401526060850135606084015260808501359150611534826113dd565b81608084015260a085013591508082111561154e57600080fd5b5061155b85828601611458565b60a0830152505092915050565b60006060828403121561157a57600080fd5b6115826112b5565b9050813561158f816113dd565b80825250602082013560208201526040820135604082015292915050565b600082601f8301126115be57600080fd5b813560206115ce611477836113b9565b828152606092830285018201928282019190878511156115ed57600080fd5b8387015b858110156116465781818a0312156116095760008081fd5b6116116112b5565b813561161c816113dd565b81528186013586820152604080830135611635816113dd565b9082015284529284019281016115f1565b5090979650505050505050565b6000806040838503121561166657600080fd5b823567ffffffffffffffff8082111561167e57600080fd5b818501915085601f83011261169257600080fd5b813560206116a2611477836113b9565b82815260059290921b840181019181810190898411156116c157600080fd5b8286015b848110156117b2578035868111156116dd5760008081fd5b870160e0818d037fffffffffffffffffffffffffffffffffffffffffffffffffffffffffffffffe0018113156117135760008081fd5b61171b6112de565b868301358981111561172d5760008081fd5b61173b8f89838701016114ae565b82525061174b8e60408501611568565b8782015260a0830135898111156117625760008081fd5b6117708f89838701016115ad565b60408301525060c0830135898111156117895760008081fd5b6117978f8983870101611458565b606083015250910135608082015283529183019183016116c5565b50965050860135925050808211156117c957600080fd5b506117d685828601611458565b9150509250929050565b600080604083850312156117f357600080fd5b82356117fe816113dd565b9150602083013567ffffffffffffffff81111561181a57600080fd5b830160e0818603121561182c57600080fd5b809150509250929050565b60006020828403121561184957600080fd5b8151801515811461185957600080fd5b9392505050565b60008083357fffffffffffffffffffffffffffffffffffffffffffffffffffffffffffffffe184360301811261189557600080fd5b830160208101925035905067ffffffffffffffff8111156118b557600080fd5b8036038213156118c457600080fd5b9250929050565b8183528181602085013750600060208284010152600060207fffffffffffffffffffffffffffffffffffffffffffffffffffffffffffffffe0601f840116840101905092915050565b60408082528181018490526000906060600586901b840181019084018784805b898110156119f0577fffffffffffffffffffffffffffffffffffffffffffffffffffffffffffffffa088860301845282357fffffffffffffffffffffffffffffffffffffffffffffffffffffffffffffffc18c3603018112611994578283fd5b8b0180356119a1816113dd565b73ffffffffffffffffffffffffffffffffffffffff16865260206119c782820183611860565b925088828901526119db89890184836118cb565b97505094850194939093019250600101611934565b5050505060209390930193909352509392505050565b60005b83811015611a21578181015183820152602001611a09565b50506000910152565b60008151808452611a42816020860160208601611a06565b601f017fffffffffffffffffffffffffffffffffffffffffffffffffffffffffffffffe0169290920160200192915050565b604081526000611a848485611860565b604080850152611a986080850182846118cb565b915050611aa86020860186611860565b7fffffffffffffffffffffffffffffffffffffffffffffffffffffffffffffffc0858403016060860152611add8382846118cb565b925050508281036020840152611af38185611a2a565b95945050505050565b60008083357fffffffffffffffffffffffffffffffffffffffffffffffffffffffffffffffe1843603018112611b3157600080fd5b83018035915067ffffffffffffffff821115611b4c57600080fd5b6020019150368190038213156118c457600080fd5b600082601f830112611b7257600080fd5b81356020611b82611477836113b9565b82815260079290921b84018101918181019086841115611ba157600080fd5b8286015b84811015611c065760808189031215611bbe5760008081fd5b611bc6611301565b8135611bd1816113dd565b8152818501358582015260408083013590820152606080830135611bf4816113dd565b90820152835291830191608001611ba5565b509695505050505050565b600060208284031215611c2357600080fd5b813567ffffffffffffffff80821115611c3b57600080fd5b908301906101208286031215611c5057600080fd5b611c58611324565b823582811115611c6757600080fd5b611c73878286016114ae565b8252506020830135602082015260408301356040820152611c9660608401611402565b606082015260808301356080820152611cb28660a08501611568565b60a082015261010083013582811115611cca57600080fd5b611cd687828601611b61565b60c08301525095945050505050565b60008060408385031215611cf857600080fd5b8251611d03816113dd565b602084015190925060ff8116811461182c57600080fd5b7f4e487b7100000000000000000000000000000000000000000000000000000000600052603260045260246000fd5b7f4e487b7100000000000000000000000000000000000000000000000000000000600052601160045260246000fd5b60007fffffffffffffffffffffffffffffffffffffffffffffffffffffffffffffffff8203611da957611da9611d49565b5060010190565b6000806040808486031215611dc457600080fd5b835167ffffffffffffffff80821115611ddc57600080fd5b818601915086601f830112611df057600080fd5b81516020611e00611477836113b9565b82815260059290921b8401810191818101908a841115611e1f57600080fd5b8286015b84811015611ef557805186811115611e3b5760008081fd5b8701808d037fffffffffffffffffffffffffffffffffffffffffffffffffffffffffffffffe001891315611e6f5760008081fd5b611e77611347565b85820151611e84816113dd565b8152818a015188811115611e985760008081fd5b8083019250508d603f830112611eae5760008081fd5b85820151611ebe61147782611412565b8181528f8c838601011115611ed35760008081fd5b611ee2828983018e8701611a06565b8288015250845250918301918301611e23565b509890910151979997985050505050505050565b81810381811115610a5e57610a5e611d49565b600060208284031215611f2e57600080fd5b8151611859816113dd565b8082028115828204841417610a5e57610a5e611d49565b600082611f86577f4e487b7100000000000000000000000000000000000000000000000000000000600052601260045260246000fd5b500490565b60006020808301818452808551808352604092508286019150828160051b87010184880160005b83811015612025578883037fffffffffffffffffffffffffffffffffffffffffffffffffffffffffffffffc00185528151805173ffffffffffffffffffffffffffffffffffffffff16845287015187840187905261201287850182611a2a565b9588019593505090860190600101611fb2565b509098975050505050505050565b80820180821115610a5e57610a5e611d49565b60006020828403121561205857600080fd5b5051919050565b60008251612071818460208701611a06565b9190910192915050565b602081526000610a5b6020830184611a2a56fe416464726573733a206c6f772d6c6576656c2064656c65676174652063616c6c206661696c6564a26469706673582212202c0d836ccb8f080186f1813d00a0695b9ff975b8b315d9306c3399eb169e177664736f6c63430008130033","linkReferences":{}},"methodIdentifiers":{"INVALID_ADDRESS()":"5963709b","VERSION()":"ffa1ad74","allowed()":"19e1fca4","execute((bytes,bytes),(address,bytes)[],uint256)":"489f9902","reactor()":"ab572650","reactorCallback(((address,address,uint256,uint256,address,bytes),(address,uint256,uint256),(address,uint256,address)[],bytes,bytes32)[],bytes)":"585da628","validate(address,((address,address,uint256,uint256,address,bytes),(address,uint256,uint256),(address,uint256,address)[],bytes,bytes32))":"6e84ba2b"},"id":74}