{"abi":[{"type":"constructor","inputs":[{"name":"_reactor","type":"address","internalType":"contract IReactor"},{"name":"_allowed","type":"address","internalType":"contract IAllowed"}],"stateMutability":"nonpayable"},{"type":"receive","stateMutability":"payable"},{"type":"function","name":"VERSION","inputs":[],"outputs":[{"name":"","type":"uint8","internalType":"uint8"}],"stateMutability":"view"},{"type":"function","name":"allowed","inputs":[],"outputs":[{"name":"","type":"address","internalType":"contract IAllowed"}],"stateMutability":"view"},{"type":"function","name":"execute","inputs":[{"name":"order","type":"tuple","internalType":"struct SignedOrder","components":[{"name":"order","type":"bytes","internalType":"bytes"},{"name":"sig","type":"bytes","internalType":"bytes"}]},{"name":"calls","type":"tuple[]","internalType":"struct IMulticall3.Call[]","components":[{"name":"target","type":"address","internalType":"address"},{"name":"callData","type":"bytes","internalType":"bytes"}]},{"name":"outAmountSwapper","type":"uint256","internalType":"uint256"}],"outputs":[],"stateMutability":"nonpayable"},{"type":"function","name":"reactor","inputs":[],"outputs":[{"name":"","type":"address","internalType":"contract IReactor"}],"stateMutability":"view"},{"type":"function","name":"reactorCallback","inputs":[{"name":"orders","type":"tuple[]","internalType":"struct ResolvedOrder[]","components":[{"name":"info","type":"tuple","internalType":"struct OrderInfo","components":[{"name":"reactor","type":"address","internalType":"contract IReactor"},{"name":"swapper","type":"address","internalType":"address"},{"name":"nonce","type":"uint256","internalType":"uint256"},{"name":"deadline","type":"uint256","internalType":"uint256"},{"name":"additionalValidationContract","type":"address","internalType":"contract IValidationCallback"},{"name":"additionalValidationData","type":"bytes","internalType":"bytes"}]},{"name":"input","type":"tuple","internalType":"struct InputToken","components":[{"name":"token","type":"address","internalType":"contract ERC20"},{"name":"amount","type":"uint256","internalType":"uint256"},{"name":"maxAmount","type":"uint256","internalType":"uint256"}]},{"name":"outputs","type":"tuple[]","internalType":"struct OutputToken[]","components":[{"name":"token","type":"address","internalType":"address"},{"name":"amount","type":"uint256","internalType":"uint256"},{"name":"recipient","type":"address","internalType":"address"}]},{"name":"sig","type":"bytes","internalType":"bytes"},{"name":"hash","type":"bytes32","internalType":"bytes32"}]},{"name":"callbackData","type":"bytes","internalType":"bytes"}],"outputs":[],"stateMutability":"nonpayable"},{"type":"function","name":"validate","inputs":[{"name":"filler","type":"address","internalType":"address"},{"name":"","type":"tuple","internalType":"struct ResolvedOrder","components":[{"name":"info","type":"tuple","internalType":"struct OrderInfo","components":[{"name":"reactor","type":"address","internalType":"contract IReactor"},{"name":"swapper","type":"address","internalType":"address"},{"name":"nonce","type":"uint256","internalType":"uint256"},{"name":"deadline","type":"uint256","internalType":"uint256"},{"name":"additionalValidationContract","type":"address","internalType":"contract IValidationCallback"},{"name":"additionalValidationData","type":"bytes","internalType":"bytes"}]},{"name":"input","type":"tuple","internalType":"struct InputToken","components":[{"name":"token","type":"address","internalType":"contract ERC20"},{"name":"amount","type":"uint256","internalType":"uint256"},{"name":"maxAmount","type":"uint256","internalType":"uint256"}]},{"name":"outputs","type":"tuple[]","internalType":"struct OutputToken[]","components":[{"name":"token","type":"address","internalType":"address"},{"name":"amount","type":"uint256","internalType":"uint256"},{"name":"recipient","type":"address","internalType":"address"}]},{"name":"sig","type":"bytes","internalType":"bytes"},{"name":"hash","type":"bytes32","internalType":"bytes32"}]}],"outputs":[],"stateMutability":"view"},{"type":"error","name":"InvalidOrder","inputs":[]},{"type":"error","name":"InvalidOutAmountSwapper","inputs":[{"name":"balance","type":"uint256","internalType":"uint256"}]},{"type":"error","name":"InvalidSender","inputs":[{"name":"sender","type":"address","internalType":"address"}]}],"bytecode":{"object":"0x60c06040523480156200001157600080fd5b506040516200221638038062002216833981016040819052620000349162000065565b6001600160a01b039182166080521660a052620000a4565b6001600160a01b03811681146200006257600080fd5b50565b600080604083850312156200007957600080fd5b825162000086816200004c565b602084015190925062000099816200004c565b809150509250929050565b60805160a05161212a620000ec60003960008181608701526101be0152600081816101470152818161027d0152818161040101528181610ae80152610b29015261212a6000f3fe6080604052600436106100695760003560e01c80636e84ba2b116100435780636e84ba2b14610115578063ab57265014610135578063ffa1ad741461016957600080fd5b806319e1fca414610075578063489f9902146100d3578063585da628146100f557600080fd5b3661007057005b600080fd5b34801561008157600080fd5b506100a97f000000000000000000000000000000000000000000000000000000000000000081565b60405173ffffffffffffffffffffffffffffffffffffffff90911681526020015b60405180910390f35b3480156100df57600080fd5b506100f36100ee36600461121d565b610190565b005b34801561010157600080fd5b506100f3610110366004611692565b6103e9565b34801561012157600080fd5b506100f361013036600461181f565b610569565b34801561014157600080fd5b506100a97f000000000000000000000000000000000000000000000000000000000000000081565b34801561017557600080fd5b5061017e600581565b60405160ff90911681526020016100ca565b6040517fd63a8e110000000000000000000000000000000000000000000000000000000081523360048201527f000000000000000000000000000000000000000000000000000000000000000073ffffffffffffffffffffffffffffffffffffffff169063d63a8e1190602401602060405180830381865afa15801561021a573d6000803e3d6000fd5b505050506040513d601f19601f8201168201806040525081019061023e9190611876565b61027b576040517f4c14f64c0000000000000000000000000000000000000000000000000000000081523360048201526024015b60405180910390fd5b7f000000000000000000000000000000000000000000000000000000000000000073ffffffffffffffffffffffffffffffffffffffff16630d335884858585856040516020016102cd93929190611953565b6040516020818303038152906040526040518363ffffffff1660e01b81526004016102f9929190611ab3565b600060405180830381600087803b15801561031357600080fd5b505af1158015610327573d6000803e3d6000fd5b506000925061033a915086905080611b3b565b8101906103479190611c50565b9050600080826000015160a001518060200190518101906103689190611d24565b91509150610388836000015160200151838560a0015160000151846105d4565b60005b8360c00151518110156103df576103cd846000015160200151848660c0015184815181106103bb576103bb611d59565b602002602001015160000151856105d4565b806103d781611db7565b91505061038b565b5050505050505050565b3373ffffffffffffffffffffffffffffffffffffffff7f0000000000000000000000000000000000000000000000000000000000000000161461045a576040517f4c14f64c000000000000000000000000000000000000000000000000000000008152336004820152602401610272565b60008260008151811061046f5761046f611d59565b60200260200101519050600080838060200190518101906104909190611def565b9150915061049d826106e6565b6000806104a985610799565b915091506104c185600001516020015183838661091a565b6000856000015160a001518060200190518101906104df9190611f48565b86516020908101516080808a0151838b01518051908501516040805173ffffffffffffffffffffffffffffffffffffffff93841681528b8416978101979097528601526060850188905294955085851694909216927f848cc5ed1484f306a3369f20f8d5c1c291e44ddd16dd5f14c106effc790dc11f910160405180910390a45050505050505050565b73ffffffffffffffffffffffffffffffffffffffff821630146105d0576040517f4c14f64c00000000000000000000000000000000000000000000000000000000815273ffffffffffffffffffffffffffffffffffffffff83166004820152602401610272565b5050565b60006105e08330610983565b9050806000036105f057506106e0565b6000606461060160ff851684611f65565b61060b9190611f7c565b905073ffffffffffffffffffffffffffffffffffffffff8516158015906106325750600081115b1561064257610642848683610a58565b61065684876106518730610983565b610a58565b8373ffffffffffffffffffffffffffffffffffffffff168573ffffffffffffffffffffffffffffffffffffffff168773ffffffffffffffffffffffffffffffffffffffff167fdcbeb523eb476416bee3486d82b37ae932021e9e9822c32c1ae986f97d2685df85856040516106d5929190918252602082015260400190565b60405180910390a450505b50505050565b6105d073ca11bde05977b3631167028862be2a173976ca1163252dba4260e01b836040516024016107179190611fb7565b604080517fffffffffffffffffffffffffffffffffffffffffffffffffffffffffffffffe08184030181529190526020810180517bffffffffffffffffffffffffffffffffffffffffffffffffffffffff167fffffffff0000000000000000000000000000000000000000000000000000000090931692909217909152610aa3565b60008060005b836040015151811015610914576000846040015182815181106107c4576107c4611d59565b60200260200101516020015190506000811115610901576000856040015183815181106107f3576107f3611d59565b602002602001015160000151905061080b8183610ac8565b85600001516020015173ffffffffffffffffffffffffffffffffffffffff168660400151848151811061084057610840611d59565b60200260200101516040015173ffffffffffffffffffffffffffffffffffffffff16036108ff5773ffffffffffffffffffffffffffffffffffffffff8516158015906108b857508073ffffffffffffffffffffffffffffffffffffffff168573ffffffffffffffffffffffffffffffffffffffff1614155b156108ef576040517faf61069300000000000000000000000000000000000000000000000000000000815260040160405180910390fd5b9350836108fc828561205f565b93505b505b508061090c81611db7565b91505061079f565b50915091565b60006109268430610983565b905080821115610965576040517fc325333700000000000000000000000000000000000000000000000000000000815260048101829052602401610272565b8282111561097c5761097c84866106518686612072565b5050505050565b600073ffffffffffffffffffffffffffffffffffffffff831615610a36576040517f70a0823100000000000000000000000000000000000000000000000000000000815273ffffffffffffffffffffffffffffffffffffffff83811660048301528416906370a0823190602401602060405180830381865afa158015610a0d573d6000803e3d6000fd5b505050506040513d601f19601f82011682018060405250810190610a319190612085565b610a4f565b8173ffffffffffffffffffffffffffffffffffffffff16315b90505b92915050565b73ffffffffffffffffffffffffffffffffffffffff8316610a8257610a7d8282610b4e565b505050565b610a7d73ffffffffffffffffffffffffffffffffffffffff84168383610ca8565b6060610a4f83836040518060600160405280602781526020016120ce60279139610d7c565b73ffffffffffffffffffffffffffffffffffffffff8216610b0d576105d07f000000000000000000000000000000000000000000000000000000000000000082610b4e565b6105d073ffffffffffffffffffffffffffffffffffffffff83167f000000000000000000000000000000000000000000000000000000000000000083610e01565b80471015610bb8576040517f08c379a000000000000000000000000000000000000000000000000000000000815260206004820152601d60248201527f416464726573733a20696e73756666696369656e742062616c616e63650000006044820152606401610272565b60008273ffffffffffffffffffffffffffffffffffffffff168260405160006040518083038185875af1925050503d8060008114610c12576040519150601f19603f3d011682016040523d82523d6000602084013e610c17565b606091505b5050905080610a7d576040517f08c379a000000000000000000000000000000000000000000000000000000000815260206004820152603a60248201527f416464726573733a20756e61626c6520746f2073656e642076616c75652c207260448201527f6563697069656e74206d617920686176652072657665727465640000000000006064820152608401610272565b60405173ffffffffffffffffffffffffffffffffffffffff8316602482015260448101829052610a7d9084907fa9059cbb00000000000000000000000000000000000000000000000000000000906064015b604080517fffffffffffffffffffffffffffffffffffffffffffffffffffffffffffffffe08184030181529190526020810180517bffffffffffffffffffffffffffffffffffffffffffffffffffffffff167fffffffff0000000000000000000000000000000000000000000000000000000090931692909217909152610efa565b60606000808573ffffffffffffffffffffffffffffffffffffffff1685604051610da6919061209e565b600060405180830381855af49150503d8060008114610de1576040519150601f19603f3d011682016040523d82523d6000602084013e610de6565b606091505b5091509150610df786838387611009565b9695505050505050565b6040517fdd62ed3e00000000000000000000000000000000000000000000000000000000815230600482015273ffffffffffffffffffffffffffffffffffffffff83811660248301526000919085169063dd62ed3e90604401602060405180830381865afa158015610e77573d6000803e3d6000fd5b505050506040513d601f19601f82011682018060405250810190610e9b9190612085565b90506106e0847f095ea7b30000000000000000000000000000000000000000000000000000000085610ecd868661205f565b60405173ffffffffffffffffffffffffffffffffffffffff90921660248301526044820152606401610cfa565b6000610f5c826040518060400160405280602081526020017f5361666545524332303a206c6f772d6c6576656c2063616c6c206661696c65648152508573ffffffffffffffffffffffffffffffffffffffff166110b19092919063ffffffff16565b9050805160001480610f7d575080806020019051810190610f7d9190611876565b610a7d576040517f08c379a000000000000000000000000000000000000000000000000000000000815260206004820152602a60248201527f5361666545524332303a204552433230206f7065726174696f6e20646964206e60448201527f6f742073756363656564000000000000000000000000000000000000000000006064820152608401610272565b6060831561109f5782516000036110985773ffffffffffffffffffffffffffffffffffffffff85163b611098576040517f08c379a000000000000000000000000000000000000000000000000000000000815260206004820152601d60248201527f416464726573733a2063616c6c20746f206e6f6e2d636f6e74726163740000006044820152606401610272565b50816110a9565b6110a983836110c0565b949350505050565b60606110a98484600085611104565b8151156110d05781518083602001fd5b806040517f08c379a000000000000000000000000000000000000000000000000000000000815260040161027291906120ba565b606082471015611196576040517f08c379a000000000000000000000000000000000000000000000000000000000815260206004820152602660248201527f416464726573733a20696e73756666696369656e742062616c616e636520666f60448201527f722063616c6c00000000000000000000000000000000000000000000000000006064820152608401610272565b6000808673ffffffffffffffffffffffffffffffffffffffff1685876040516111bf919061209e565b60006040518083038185875af1925050503d80600081146111fc576040519150601f19603f3d011682016040523d82523d6000602084013e611201565b606091505b509150915061121287838387611009565b979650505050505050565b6000806000806060858703121561123357600080fd5b843567ffffffffffffffff8082111561124b57600080fd5b908601906040828903121561125f57600080fd5b9094506020860135908082111561127557600080fd5b818701915087601f83011261128957600080fd5b81358181111561129857600080fd5b8860208260051b85010111156112ad57600080fd5b95986020929092019750949560400135945092505050565b7f4e487b7100000000000000000000000000000000000000000000000000000000600052604160045260246000fd5b6040516060810167ffffffffffffffff81118282101715611317576113176112c5565b60405290565b60405160a0810167ffffffffffffffff81118282101715611317576113176112c5565b6040516080810167ffffffffffffffff81118282101715611317576113176112c5565b60405160e0810167ffffffffffffffff81118282101715611317576113176112c5565b6040805190810167ffffffffffffffff81118282101715611317576113176112c5565b604051601f82017fffffffffffffffffffffffffffffffffffffffffffffffffffffffffffffffe016810167ffffffffffffffff811182821017156113f0576113f06112c5565b604052919050565b600067ffffffffffffffff821115611412576114126112c5565b5060051b60200190565b73ffffffffffffffffffffffffffffffffffffffff8116811461143e57600080fd5b50565b803561144c8161141c565b919050565b600067ffffffffffffffff82111561146b5761146b6112c5565b50601f017fffffffffffffffffffffffffffffffffffffffffffffffffffffffffffffffe01660200190565b600082601f8301126114a857600080fd5b81356114bb6114b682611451565b6113a9565b8181528460208386010111156114d057600080fd5b816020850160208301376000918101602001919091529392505050565b600060c082840312156114ff57600080fd5b60405160c0810167ffffffffffffffff8282108183111715611523576115236112c5565b81604052829350843591506115378261141c565b9082526020840135906115498261141c565b8160208401526040850135604084015260608501356060840152608085013591506115738261141c565b81608084015260a085013591508082111561158d57600080fd5b5061159a85828601611497565b60a0830152505092915050565b6000606082840312156115b957600080fd5b6115c16112f4565b905081356115ce8161141c565b80825250602082013560208201526040820135604082015292915050565b600082601f8301126115fd57600080fd5b8135602061160d6114b6836113f8565b8281526060928302850182019282820191908785111561162c57600080fd5b8387015b858110156116855781818a0312156116485760008081fd5b6116506112f4565b813561165b8161141c565b815281860135868201526040808301356116748161141c565b908201528452928401928101611630565b5090979650505050505050565b600080604083850312156116a557600080fd5b823567ffffffffffffffff808211156116bd57600080fd5b818501915085601f8301126116d157600080fd5b813560206116e16114b6836113f8565b82815260059290921b8401810191818101908984111561170057600080fd5b8286015b848110156117f15780358681111561171c5760008081fd5b870160e0818d037fffffffffffffffffffffffffffffffffffffffffffffffffffffffffffffffe0018113156117525760008081fd5b61175a61131d565b868301358981111561176c5760008081fd5b61177a8f89838701016114ed565b82525061178a8e604085016115a7565b8782015260a0830135898111156117a15760008081fd5b6117af8f89838701016115ec565b60408301525060c0830135898111156117c85760008081fd5b6117d68f8983870101611497565b60608301525091013560808201528352918301918301611704565b509650508601359250508082111561180857600080fd5b5061181585828601611497565b9150509250929050565b6000806040838503121561183257600080fd5b823561183d8161141c565b9150602083013567ffffffffffffffff81111561185957600080fd5b830160e0818603121561186b57600080fd5b809150509250929050565b60006020828403121561188857600080fd5b8151801515811461189857600080fd5b9392505050565b60008083357fffffffffffffffffffffffffffffffffffffffffffffffffffffffffffffffe18436030181126118d457600080fd5b830160208101925035905067ffffffffffffffff8111156118f457600080fd5b80360382131561190357600080fd5b9250929050565b8183528181602085013750600060208284010152600060207fffffffffffffffffffffffffffffffffffffffffffffffffffffffffffffffe0601f840116840101905092915050565b60408082528181018490526000906060600586901b840181019084018784805b89811015611a2f577fffffffffffffffffffffffffffffffffffffffffffffffffffffffffffffffa088860301845282357fffffffffffffffffffffffffffffffffffffffffffffffffffffffffffffffc18c36030181126119d3578283fd5b8b0180356119e08161141c565b73ffffffffffffffffffffffffffffffffffffffff1686526020611a068282018361189f565b92508882890152611a1a898901848361190a565b97505094850194939093019250600101611973565b5050505060209390930193909352509392505050565b60005b83811015611a60578181015183820152602001611a48565b50506000910152565b60008151808452611a81816020860160208601611a45565b601f017fffffffffffffffffffffffffffffffffffffffffffffffffffffffffffffffe0169290920160200192915050565b604081526000611ac3848561189f565b604080850152611ad760808501828461190a565b915050611ae7602086018661189f565b7fffffffffffffffffffffffffffffffffffffffffffffffffffffffffffffffc0858403016060860152611b1c83828461190a565b925050508281036020840152611b328185611a69565b95945050505050565b60008083357fffffffffffffffffffffffffffffffffffffffffffffffffffffffffffffffe1843603018112611b7057600080fd5b83018035915067ffffffffffffffff821115611b8b57600080fd5b60200191503681900382131561190357600080fd5b600082601f830112611bb157600080fd5b81356020611bc16114b6836113f8565b82815260079290921b84018101918181019086841115611be057600080fd5b8286015b84811015611c455760808189031215611bfd5760008081fd5b611c05611340565b8135611c108161141c565b8152818501358582015260408083013590820152606080830135611c338161141c565b90820152835291830191608001611be4565b509695505050505050565b600060208284031215611c6257600080fd5b813567ffffffffffffffff80821115611c7a57600080fd5b908301906101208286031215611c8f57600080fd5b611c97611363565b823582811115611ca657600080fd5b611cb2878286016114ed565b8252506020830135602082015260408301356040820152611cd560608401611441565b606082015260808301356080820152611cf18660a085016115a7565b60a082015261010083013582811115611d0957600080fd5b611d1587828601611ba0565b60c08301525095945050505050565b60008060408385031215611d3757600080fd5b8251611d428161141c565b602084015190925060ff8116811461186b57600080fd5b7f4e487b7100000000000000000000000000000000000000000000000000000000600052603260045260246000fd5b7f4e487b7100000000000000000000000000000000000000000000000000000000600052601160045260246000fd5b60007fffffffffffffffffffffffffffffffffffffffffffffffffffffffffffffffff8203611de857611de8611d88565b5060010190565b6000806040808486031215611e0357600080fd5b835167ffffffffffffffff80821115611e1b57600080fd5b818601915086601f830112611e2f57600080fd5b81516020611e3f6114b6836113f8565b82815260059290921b8401810191818101908a841115611e5e57600080fd5b8286015b84811015611f3457805186811115611e7a5760008081fd5b8701808d037fffffffffffffffffffffffffffffffffffffffffffffffffffffffffffffffe001891315611eae5760008081fd5b611eb6611386565b85820151611ec38161141c565b8152818a015188811115611ed75760008081fd5b8083019250508d603f830112611eed5760008081fd5b85820151611efd6114b682611451565b8181528f8c838601011115611f125760008081fd5b611f21828983018e8701611a45565b8288015250845250918301918301611e62565b509890910151979997985050505050505050565b600060208284031215611f5a57600080fd5b81516118988161141c565b8082028115828204841417610a5257610a52611d88565b600082611fb2577f4e487b7100000000000000000000000000000000000000000000000000000000600052601260045260246000fd5b500490565b60006020808301818452808551808352604092508286019150828160051b87010184880160005b83811015612051578883037fffffffffffffffffffffffffffffffffffffffffffffffffffffffffffffffc00185528151805173ffffffffffffffffffffffffffffffffffffffff16845287015187840187905261203e87850182611a69565b9588019593505090860190600101611fde565b509098975050505050505050565b80820180821115610a5257610a52611d88565b81810381811115610a5257610a52611d88565b60006020828403121561209757600080fd5b5051919050565b600082516120b0818460208701611a45565b9190910192915050565b602081526000610a4f6020830184611a6956fe416464726573733a206c6f772d6c6576656c2064656c65676174652063616c6c206661696c6564a2646970667358221220da4d0a2388dd8fb3a7070f70ed1741a06db362d45396392fb54ee022ade1522464736f6c63430008130033","linkReferences":{}},"methodIdentifiers":{"VERSION()":"ffa1ad74","allowed()":"19e1fca4","execute((bytes,bytes),(address,bytes)[],uint256)":"489f9902","reactor()":"ab572650","reactorCallback(((address,address,uint256,uint256,address,bytes),(address,uint256,uint256),(address,uint256,address)[],bytes,bytes32)[],bytes)":"585da628","validate(address,((address,address,uint256,uint256,address,bytes),(address,uint256,uint256),(address,uint256,address)[],bytes,bytes32))":"6e84ba2b"},"id":80}