{"abi":[{"type":"constructor","inputs":[{"name":"_reactor","type":"address","internalType":"contract IReactor"},{"name":"_allowed","type":"address","internalType":"contract IAllowed"}],"stateMutability":"nonpayable"},{"type":"receive","stateMutability":"payable"},{"type":"function","name":"VERSION","inputs":[],"outputs":[{"name":"","type":"uint8","internalType":"uint8"}],"stateMutability":"view"},{"type":"function","name":"allowed","inputs":[],"outputs":[{"name":"","type":"address","internalType":"contract IAllowed"}],"stateMutability":"view"},{"type":"function","name":"execute","inputs":[{"name":"order","type":"tuple","internalType":"struct SignedOrder","components":[{"name":"order","type":"bytes","internalType":"bytes"},{"name":"sig","type":"bytes","internalType":"bytes"}]},{"name":"calls","type":"tuple[]","internalType":"struct IMulticall3.Call[]","components":[{"name":"target","type":"address","internalType":"address"},{"name":"callData","type":"bytes","internalType":"bytes"}]},{"name":"outAmountSwapper","type":"uint256","internalType":"uint256"}],"outputs":[],"stateMutability":"nonpayable"},{"type":"function","name":"reactor","inputs":[],"outputs":[{"name":"","type":"address","internalType":"contract IReactor"}],"stateMutability":"view"},{"type":"function","name":"reactorCallback","inputs":[{"name":"orders","type":"tuple[]","internalType":"struct ResolvedOrder[]","components":[{"name":"info","type":"tuple","internalType":"struct OrderInfo","components":[{"name":"reactor","type":"address","internalType":"contract IReactor"},{"name":"swapper","type":"address","internalType":"address"},{"name":"nonce","type":"uint256","internalType":"uint256"},{"name":"deadline","type":"uint256","internalType":"uint256"},{"name":"additionalValidationContract","type":"address","internalType":"contract IValidationCallback"},{"name":"additionalValidationData","type":"bytes","internalType":"bytes"}]},{"name":"input","type":"tuple","internalType":"struct InputToken","components":[{"name":"token","type":"address","internalType":"contract ERC20"},{"name":"amount","type":"uint256","internalType":"uint256"},{"name":"maxAmount","type":"uint256","internalType":"uint256"}]},{"name":"outputs","type":"tuple[]","internalType":"struct OutputToken[]","components":[{"name":"token","type":"address","internalType":"address"},{"name":"amount","type":"uint256","internalType":"uint256"},{"name":"recipient","type":"address","internalType":"address"}]},{"name":"sig","type":"bytes","internalType":"bytes"},{"name":"hash","type":"bytes32","internalType":"bytes32"}]},{"name":"callbackData","type":"bytes","internalType":"bytes"}],"outputs":[],"stateMutability":"nonpayable"},{"type":"function","name":"validate","inputs":[{"name":"filler","type":"address","internalType":"address"},{"name":"","type":"tuple","internalType":"struct ResolvedOrder","components":[{"name":"info","type":"tuple","internalType":"struct OrderInfo","components":[{"name":"reactor","type":"address","internalType":"contract IReactor"},{"name":"swapper","type":"address","internalType":"address"},{"name":"nonce","type":"uint256","internalType":"uint256"},{"name":"deadline","type":"uint256","internalType":"uint256"},{"name":"additionalValidationContract","type":"address","internalType":"contract IValidationCallback"},{"name":"additionalValidationData","type":"bytes","internalType":"bytes"}]},{"name":"input","type":"tuple","internalType":"struct InputToken","components":[{"name":"token","type":"address","internalType":"contract ERC20"},{"name":"amount","type":"uint256","internalType":"uint256"},{"name":"maxAmount","type":"uint256","internalType":"uint256"}]},{"name":"outputs","type":"tuple[]","internalType":"struct OutputToken[]","components":[{"name":"token","type":"address","internalType":"address"},{"name":"amount","type":"uint256","internalType":"uint256"},{"name":"recipient","type":"address","internalType":"address"}]},{"name":"sig","type":"bytes","internalType":"bytes"},{"name":"hash","type":"bytes32","internalType":"bytes32"}]}],"outputs":[],"stateMutability":"view"},{"type":"error","name":"InvalidOrder","inputs":[]},{"type":"error","name":"InvalidSender","inputs":[{"name":"sender","type":"address","internalType":"address"}]}],"bytecode":{"object":"0x60c06040523480156200001157600080fd5b50604051620021b5380380620021b5833981016040819052620000349162000065565b6001600160a01b039182166080521660a052620000a4565b6001600160a01b03811681146200006257600080fd5b50565b600080604083850312156200007957600080fd5b825162000086816200004c565b602084015190925062000099816200004c565b809150509250929050565b60805160a0516120c9620000ec60003960008181608701526101be0152600081816101470152818161027d0152818161040101528181610a870152610ac801526120c96000f3fe6080604052600436106100695760003560e01c80636e84ba2b116100435780636e84ba2b14610115578063ab57265014610135578063ffa1ad741461016957600080fd5b806319e1fca414610075578063489f9902146100d3578063585da628146100f557600080fd5b3661007057005b600080fd5b34801561008157600080fd5b506100a97f000000000000000000000000000000000000000000000000000000000000000081565b60405173ffffffffffffffffffffffffffffffffffffffff90911681526020015b60405180910390f35b3480156100df57600080fd5b506100f36100ee3660046111bc565b610190565b005b34801561010157600080fd5b506100f3610110366004611631565b6103e9565b34801561012157600080fd5b506100f36101303660046117be565b610578565b34801561014157600080fd5b506100a97f000000000000000000000000000000000000000000000000000000000000000081565b34801561017557600080fd5b5061017e600581565b60405160ff90911681526020016100ca565b6040517fd63a8e110000000000000000000000000000000000000000000000000000000081523360048201527f000000000000000000000000000000000000000000000000000000000000000073ffffffffffffffffffffffffffffffffffffffff169063d63a8e1190602401602060405180830381865afa15801561021a573d6000803e3d6000fd5b505050506040513d601f19601f8201168201806040525081019061023e9190611815565b61027b576040517f4c14f64c0000000000000000000000000000000000000000000000000000000081523360048201526024015b60405180910390fd5b7f000000000000000000000000000000000000000000000000000000000000000073ffffffffffffffffffffffffffffffffffffffff16630d335884858585856040516020016102cd939291906118f2565b6040516020818303038152906040526040518363ffffffff1660e01b81526004016102f9929190611a52565b600060405180830381600087803b15801561031357600080fd5b505af1158015610327573d6000803e3d6000fd5b506000925061033a915086905080611ada565b8101906103479190611bef565b9050600080826000015160a001518060200190518101906103689190611cc3565b91509150610388836000015160200151838560a0015160000151846105e3565b60005b8360c00151518110156103df576103cd846000015160200151848660c0015184815181106103bb576103bb611cf8565b602002602001015160000151856105e3565b806103d781611d56565b91505061038b565b5050505050505050565b3373ffffffffffffffffffffffffffffffffffffffff7f0000000000000000000000000000000000000000000000000000000000000000161461045a576040517f4c14f64c000000000000000000000000000000000000000000000000000000008152336004820152602401610272565b60008260008151811061046f5761046f611cf8565b60200260200101519050600080838060200190518101906104909190611d8e565b9150915061049d826106ee565b6000806104a9856107a1565b91509150808311156104d0578451602001516104d09083906104cb8487611ee7565b610922565b6000856000015160a001518060200190518101906104ee9190611efa565b86516020908101516080808a0151838b01518051908501516040805173ffffffffffffffffffffffffffffffffffffffff93841681528b8416978101979097528601526060850188905294955085851694909216927f848cc5ed1484f306a3369f20f8d5c1c291e44ddd16dd5f14c106effc790dc11f910160405180910390a45050505050505050565b73ffffffffffffffffffffffffffffffffffffffff821630146105df576040517f4c14f64c00000000000000000000000000000000000000000000000000000000815273ffffffffffffffffffffffffffffffffffffffff83166004820152602401610272565b5050565b60006105ef833061096d565b9050806000036105ff57506106e8565b600073ffffffffffffffffffffffffffffffffffffffff851661062357600061063c565b606461063260ff851684611f17565b61063c9190611f2e565b9050801561064f5761064f848683610922565b61065e84876104cb8486611ee7565b8373ffffffffffffffffffffffffffffffffffffffff168573ffffffffffffffffffffffffffffffffffffffff168773ffffffffffffffffffffffffffffffffffffffff167fdcbeb523eb476416bee3486d82b37ae932021e9e9822c32c1ae986f97d2685df85856040516106dd929190918252602082015260400190565b60405180910390a450505b50505050565b6105df73ca11bde05977b3631167028862be2a173976ca1163252dba4260e01b8360405160240161071f9190611f69565b604080517fffffffffffffffffffffffffffffffffffffffffffffffffffffffffffffffe08184030181529190526020810180517bffffffffffffffffffffffffffffffffffffffffffffffffffffffff167fffffffff0000000000000000000000000000000000000000000000000000000090931692909217909152610a42565b60008060005b83604001515181101561091c576000846040015182815181106107cc576107cc611cf8565b60200260200101516020015190506000811115610909576000856040015183815181106107fb576107fb611cf8565b60200260200101516000015190506108138183610a67565b85600001516020015173ffffffffffffffffffffffffffffffffffffffff168660400151848151811061084857610848611cf8565b60200260200101516040015173ffffffffffffffffffffffffffffffffffffffff16036109075773ffffffffffffffffffffffffffffffffffffffff8516158015906108c057508073ffffffffffffffffffffffffffffffffffffffff168573ffffffffffffffffffffffffffffffffffffffff1614155b156108f7576040517faf61069300000000000000000000000000000000000000000000000000000000815260040160405180910390fd5b9350836109048285612011565b93505b505b508061091481611d56565b9150506107a7565b50915091565b73ffffffffffffffffffffffffffffffffffffffff831661094c576109478282610aed565b505050565b61094773ffffffffffffffffffffffffffffffffffffffff84168383610c47565b600073ffffffffffffffffffffffffffffffffffffffff831615610a20576040517f70a0823100000000000000000000000000000000000000000000000000000000815273ffffffffffffffffffffffffffffffffffffffff83811660048301528416906370a0823190602401602060405180830381865afa1580156109f7573d6000803e3d6000fd5b505050506040513d601f19601f82011682018060405250810190610a1b9190612024565b610a39565b8173ffffffffffffffffffffffffffffffffffffffff16315b90505b92915050565b6060610a39838360405180606001604052806027815260200161206d60279139610d1b565b73ffffffffffffffffffffffffffffffffffffffff8216610aac576105df7f000000000000000000000000000000000000000000000000000000000000000082610aed565b6105df73ffffffffffffffffffffffffffffffffffffffff83167f000000000000000000000000000000000000000000000000000000000000000083610da0565b80471015610b57576040517f08c379a000000000000000000000000000000000000000000000000000000000815260206004820152601d60248201527f416464726573733a20696e73756666696369656e742062616c616e63650000006044820152606401610272565b60008273ffffffffffffffffffffffffffffffffffffffff168260405160006040518083038185875af1925050503d8060008114610bb1576040519150601f19603f3d011682016040523d82523d6000602084013e610bb6565b606091505b5050905080610947576040517f08c379a000000000000000000000000000000000000000000000000000000000815260206004820152603a60248201527f416464726573733a20756e61626c6520746f2073656e642076616c75652c207260448201527f6563697069656e74206d617920686176652072657665727465640000000000006064820152608401610272565b60405173ffffffffffffffffffffffffffffffffffffffff83166024820152604481018290526109479084907fa9059cbb00000000000000000000000000000000000000000000000000000000906064015b604080517fffffffffffffffffffffffffffffffffffffffffffffffffffffffffffffffe08184030181529190526020810180517bffffffffffffffffffffffffffffffffffffffffffffffffffffffff167fffffffff0000000000000000000000000000000000000000000000000000000090931692909217909152610e99565b60606000808573ffffffffffffffffffffffffffffffffffffffff1685604051610d45919061203d565b600060405180830381855af49150503d8060008114610d80576040519150601f19603f3d011682016040523d82523d6000602084013e610d85565b606091505b5091509150610d9686838387610fa8565b9695505050505050565b6040517fdd62ed3e00000000000000000000000000000000000000000000000000000000815230600482015273ffffffffffffffffffffffffffffffffffffffff83811660248301526000919085169063dd62ed3e90604401602060405180830381865afa158015610e16573d6000803e3d6000fd5b505050506040513d601f19601f82011682018060405250810190610e3a9190612024565b90506106e8847f095ea7b30000000000000000000000000000000000000000000000000000000085610e6c8686612011565b60405173ffffffffffffffffffffffffffffffffffffffff90921660248301526044820152606401610c99565b6000610efb826040518060400160405280602081526020017f5361666545524332303a206c6f772d6c6576656c2063616c6c206661696c65648152508573ffffffffffffffffffffffffffffffffffffffff166110509092919063ffffffff16565b9050805160001480610f1c575080806020019051810190610f1c9190611815565b610947576040517f08c379a000000000000000000000000000000000000000000000000000000000815260206004820152602a60248201527f5361666545524332303a204552433230206f7065726174696f6e20646964206e60448201527f6f742073756363656564000000000000000000000000000000000000000000006064820152608401610272565b6060831561103e5782516000036110375773ffffffffffffffffffffffffffffffffffffffff85163b611037576040517f08c379a000000000000000000000000000000000000000000000000000000000815260206004820152601d60248201527f416464726573733a2063616c6c20746f206e6f6e2d636f6e74726163740000006044820152606401610272565b5081611048565b611048838361105f565b949350505050565b606061104884846000856110a3565b81511561106f5781518083602001fd5b806040517f08c379a00000000000000000000000000000000000000000000000000000000081526004016102729190612059565b606082471015611135576040517f08c379a000000000000000000000000000000000000000000000000000000000815260206004820152602660248201527f416464726573733a20696e73756666696369656e742062616c616e636520666f60448201527f722063616c6c00000000000000000000000000000000000000000000000000006064820152608401610272565b6000808673ffffffffffffffffffffffffffffffffffffffff16858760405161115e919061203d565b60006040518083038185875af1925050503d806000811461119b576040519150601f19603f3d011682016040523d82523d6000602084013e6111a0565b606091505b50915091506111b187838387610fa8565b979650505050505050565b600080600080606085870312156111d257600080fd5b843567ffffffffffffffff808211156111ea57600080fd5b90860190604082890312156111fe57600080fd5b9094506020860135908082111561121457600080fd5b818701915087601f83011261122857600080fd5b81358181111561123757600080fd5b8860208260051b850101111561124c57600080fd5b95986020929092019750949560400135945092505050565b7f4e487b7100000000000000000000000000000000000000000000000000000000600052604160045260246000fd5b6040516060810167ffffffffffffffff811182821017156112b6576112b6611264565b60405290565b60405160a0810167ffffffffffffffff811182821017156112b6576112b6611264565b6040516080810167ffffffffffffffff811182821017156112b6576112b6611264565b60405160e0810167ffffffffffffffff811182821017156112b6576112b6611264565b6040805190810167ffffffffffffffff811182821017156112b6576112b6611264565b604051601f82017fffffffffffffffffffffffffffffffffffffffffffffffffffffffffffffffe016810167ffffffffffffffff8111828210171561138f5761138f611264565b604052919050565b600067ffffffffffffffff8211156113b1576113b1611264565b5060051b60200190565b73ffffffffffffffffffffffffffffffffffffffff811681146113dd57600080fd5b50565b80356113eb816113bb565b919050565b600067ffffffffffffffff82111561140a5761140a611264565b50601f017fffffffffffffffffffffffffffffffffffffffffffffffffffffffffffffffe01660200190565b600082601f83011261144757600080fd5b813561145a611455826113f0565b611348565b81815284602083860101111561146f57600080fd5b816020850160208301376000918101602001919091529392505050565b600060c0828403121561149e57600080fd5b60405160c0810167ffffffffffffffff82821081831117156114c2576114c2611264565b81604052829350843591506114d6826113bb565b9082526020840135906114e8826113bb565b816020840152604085013560408401526060850135606084015260808501359150611512826113bb565b81608084015260a085013591508082111561152c57600080fd5b5061153985828601611436565b60a0830152505092915050565b60006060828403121561155857600080fd5b611560611293565b9050813561156d816113bb565b80825250602082013560208201526040820135604082015292915050565b600082601f83011261159c57600080fd5b813560206115ac61145583611397565b828152606092830285018201928282019190878511156115cb57600080fd5b8387015b858110156116245781818a0312156115e75760008081fd5b6115ef611293565b81356115fa816113bb565b81528186013586820152604080830135611613816113bb565b9082015284529284019281016115cf565b5090979650505050505050565b6000806040838503121561164457600080fd5b823567ffffffffffffffff8082111561165c57600080fd5b818501915085601f83011261167057600080fd5b8135602061168061145583611397565b82815260059290921b8401810191818101908984111561169f57600080fd5b8286015b84811015611790578035868111156116bb5760008081fd5b870160e0818d037fffffffffffffffffffffffffffffffffffffffffffffffffffffffffffffffe0018113156116f15760008081fd5b6116f96112bc565b868301358981111561170b5760008081fd5b6117198f898387010161148c565b8252506117298e60408501611546565b8782015260a0830135898111156117405760008081fd5b61174e8f898387010161158b565b60408301525060c0830135898111156117675760008081fd5b6117758f8983870101611436565b606083015250910135608082015283529183019183016116a3565b50965050860135925050808211156117a757600080fd5b506117b485828601611436565b9150509250929050565b600080604083850312156117d157600080fd5b82356117dc816113bb565b9150602083013567ffffffffffffffff8111156117f857600080fd5b830160e0818603121561180a57600080fd5b809150509250929050565b60006020828403121561182757600080fd5b8151801515811461183757600080fd5b9392505050565b60008083357fffffffffffffffffffffffffffffffffffffffffffffffffffffffffffffffe184360301811261187357600080fd5b830160208101925035905067ffffffffffffffff81111561189357600080fd5b8036038213156118a257600080fd5b9250929050565b8183528181602085013750600060208284010152600060207fffffffffffffffffffffffffffffffffffffffffffffffffffffffffffffffe0601f840116840101905092915050565b60408082528181018490526000906060600586901b840181019084018784805b898110156119ce577fffffffffffffffffffffffffffffffffffffffffffffffffffffffffffffffa088860301845282357fffffffffffffffffffffffffffffffffffffffffffffffffffffffffffffffc18c3603018112611972578283fd5b8b01803561197f816113bb565b73ffffffffffffffffffffffffffffffffffffffff16865260206119a58282018361183e565b925088828901526119b989890184836118a9565b97505094850194939093019250600101611912565b5050505060209390930193909352509392505050565b60005b838110156119ff5781810151838201526020016119e7565b50506000910152565b60008151808452611a208160208601602086016119e4565b601f017fffffffffffffffffffffffffffffffffffffffffffffffffffffffffffffffe0169290920160200192915050565b604081526000611a62848561183e565b604080850152611a766080850182846118a9565b915050611a86602086018661183e565b7fffffffffffffffffffffffffffffffffffffffffffffffffffffffffffffffc0858403016060860152611abb8382846118a9565b925050508281036020840152611ad18185611a08565b95945050505050565b60008083357fffffffffffffffffffffffffffffffffffffffffffffffffffffffffffffffe1843603018112611b0f57600080fd5b83018035915067ffffffffffffffff821115611b2a57600080fd5b6020019150368190038213156118a257600080fd5b600082601f830112611b5057600080fd5b81356020611b6061145583611397565b82815260079290921b84018101918181019086841115611b7f57600080fd5b8286015b84811015611be45760808189031215611b9c5760008081fd5b611ba46112df565b8135611baf816113bb565b8152818501358582015260408083013590820152606080830135611bd2816113bb565b90820152835291830191608001611b83565b509695505050505050565b600060208284031215611c0157600080fd5b813567ffffffffffffffff80821115611c1957600080fd5b908301906101208286031215611c2e57600080fd5b611c36611302565b823582811115611c4557600080fd5b611c518782860161148c565b8252506020830135602082015260408301356040820152611c74606084016113e0565b606082015260808301356080820152611c908660a08501611546565b60a082015261010083013582811115611ca857600080fd5b611cb487828601611b3f565b60c08301525095945050505050565b60008060408385031215611cd657600080fd5b8251611ce1816113bb565b602084015190925060ff8116811461180a57600080fd5b7f4e487b7100000000000000000000000000000000000000000000000000000000600052603260045260246000fd5b7f4e487b7100000000000000000000000000000000000000000000000000000000600052601160045260246000fd5b60007fffffffffffffffffffffffffffffffffffffffffffffffffffffffffffffffff8203611d8757611d87611d27565b5060010190565b6000806040808486031215611da257600080fd5b835167ffffffffffffffff80821115611dba57600080fd5b818601915086601f830112611dce57600080fd5b81516020611dde61145583611397565b82815260059290921b8401810191818101908a841115611dfd57600080fd5b8286015b84811015611ed357805186811115611e195760008081fd5b8701808d037fffffffffffffffffffffffffffffffffffffffffffffffffffffffffffffffe001891315611e4d5760008081fd5b611e55611325565b85820151611e62816113bb565b8152818a015188811115611e765760008081fd5b8083019250508d603f830112611e8c5760008081fd5b85820151611e9c611455826113f0565b8181528f8c838601011115611eb15760008081fd5b611ec0828983018e87016119e4565b8288015250845250918301918301611e01565b509890910151979997985050505050505050565b81810381811115610a3c57610a3c611d27565b600060208284031215611f0c57600080fd5b8151611837816113bb565b8082028115828204841417610a3c57610a3c611d27565b600082611f64577f4e487b7100000000000000000000000000000000000000000000000000000000600052601260045260246000fd5b500490565b60006020808301818452808551808352604092508286019150828160051b87010184880160005b83811015612003578883037fffffffffffffffffffffffffffffffffffffffffffffffffffffffffffffffc00185528151805173ffffffffffffffffffffffffffffffffffffffff168452870151878401879052611ff087850182611a08565b9588019593505090860190600101611f90565b509098975050505050505050565b80820180821115610a3c57610a3c611d27565b60006020828403121561203657600080fd5b5051919050565b6000825161204f8184602087016119e4565b9190910192915050565b602081526000610a396020830184611a0856fe416464726573733a206c6f772d6c6576656c2064656c65676174652063616c6c206661696c6564a2646970667358221220ef3fba711753836555202fc974e3d9ca1ef95e1612428811c8a4eabb342ca90464736f6c63430008130033","linkReferences":{}},"methodIdentifiers":{"VERSION()":"ffa1ad74","allowed()":"19e1fca4","execute((bytes,bytes),(address,bytes)[],uint256)":"489f9902","reactor()":"ab572650","reactorCallback(((address,address,uint256,uint256,address,bytes),(address,uint256,uint256),(address,uint256,address)[],bytes,bytes32)[],bytes)":"585da628","validate(address,((address,address,uint256,uint256,address,bytes),(address,uint256,uint256),(address,uint256,address)[],bytes,bytes32))":"6e84ba2b"},"id":74}